:1000000007C1000035C1000033C1000031C100004C
:100010002FC100002DC100002BC1000029C100002C
:1000200027C1000025C1000023C1000021C100003C
:100030001FC100001DC100001BC1000019C100004C
:1000400017C10000AEC6000013C1000011C10000BE
:100050000FC100000DC100000BC1000020C6000050
:1000600007C10000E6C50000BBC5000001C10000DB
:10007000FFC00000FDC00000FBC00000F9C0000090
:1000800058C60000F5C00000F3C00000F1C0000039
:10009000EFC00000EDC00000EBC00000E9C00000B0
:1000A000E7C00000E5C00000E3C00000E1C00000C0
:1000B000DFC00000DDC00000DBC00000D9C00000D0
:1000C000D7C00000D5C00000D3C00000D1C00000E0
:1000D000CFC00000CDC00000CBC00000C9C00000F0
:1000E000C7C00000A302A602950299029D02DD028C
:1000F000AA02AE02B402B802BC02C202C602CA021E
:10010000DD02D002D402D802000021002400270022
:100110002A002D0030003300010100000401070116
:100120000A0100002200250028002B002E003100CB
:10013000340002010000050108010B010505050559
:10014000070508080808020202020A0A080804044F
:10015000040401010101010101010303030303037D
:100160000303040707070C0C0C0C0C0C0C0C02020C
:10017000020206060606060606060B0B0B0B0B0B09
:100180000B0B010210202008081020401020408096
:10019000020102010804020101020408102040804B
:1001A00080402010080402018004020180402010D9
:1001B0000804020108040201010204081020408022
:1001C000010204081020408000000A0B02090C0DF7
:1001D0000E080703040100000000000000000000FA
:1001E000000000000000000000000000000000000F
:1001F00000000000121110000000000000000000CC
:1002000000000000000000000000000000009C0B47
:1002100011241FBECFEFD1E2DEBFCDBF00E00CBF87
:1002200012E0A0E0B2E0E6ECFBE100E00BBF02C0B0
:1002300007900D92A83DB107D9F723E0A8EDB2E0F1
:1002400001C01D92A43CB207E1F711E0C8E0D1E083
:1002500000E006C021970109802FFE010E94B50D24
:10026000C730D10780E00807A9F7CDD50C94E10D80
:10027000C7CECF92DF92EF92FF920F931F93CF934F
:10028000DF936C017A018B01C0E0D0E0CE15DF0571
:1002900081F0D8016D918D01D601ED91FC91019015
:1002A000F081E02DC6011995892B11F02196EECF32
:1002B0007E01C701DF91CF911F910F91FF90EF90C9
:1002C000DF90CF900895089580E090E00895FC01BC
:1002D000538D448D252F30E0842F90E0821B930BAB
:1002E000541710F0CF96089501970895FC01918D51
:1002F000828D981761F0828DDF01A80FB11D5D9688
:100300008C91928D9F5F9F73928F90E008958FEFF5
:100310009FEF0895FC01918D828D981731F0828DA9
:10032000E80FF11D858D90E008958FEF9FEF089500
:10033000FC01918D228D892F90E0805C9F4F821B64
:1003400091098F739927089587E293E0F1DF21E007
:10035000892B09F420E0822F0895FC01848DDF01B0
:10036000A80FB11DA35ABF4F2C91848D90E0019628
:100370008F739927848FA689B7892C93A089B18917
:100380008C91837080648C93938D848D981306C0B8
:100390000288F389E02D80818F7D80830895EF921C
:1003A000FF920F931F93CF93DF93EC0181E0888F2F
:1003B0009B8D8C8D981305C0E889F989808185FD16
:1003C00025C0F62E0B8D10E00F5F1F4F0F73112706
:1003D000E02E8C8DE8120BC00FB607FCFACFE8892F
:1003E000F989808185FFF5CFCE01B7DFF2CF8B8D04
:1003F000FE01E80FF11DE35AFF4FF0829FB7F8941A
:100400000B8FEA89FB89808180620AC09FB7F894CC
:10041000EE89FF896083E889F9898081837080642F
:1004200080839FBF81E090E0DF91CF911F910F917A
:10043000FF90EF900895CF93DF93EC01888D882390
:10044000C1F0EA89FB89808185FD05C0A889B98949
:100450008C9186FD0EC00FB607FCF5CF808185FF1D
:10046000F2CFA889B9898C9185FFEDCFCE0175DFD8
:10047000E8CFDF91CF91089580E090E0892B19F0CB
:1004800063DF811125C080E090E0892B41F080E09E
:1004900090E0892B21F00E94000081111CC080E0B7
:1004A00090E0892B41F080E090E0892B21F00E94C0
:1004B0000000811113C080E090E0892BA1F080E062
:1004C00090E0892B81F00E94000081110AC00895FC
:1004D0000E940000D8CF0E940000E1CF0E940000DF
:1004E000EACF0C9400000895362F90E0FC01E85309
:1004F000FE4F4491FC01EE57FE4F2491FC01E45C59
:10050000FE4F9491992309F46CC0442309F455C01B
:1005100050E0FA013197E231F10508F04EC088272A
:10052000EE58FF4F8F4F0C94B50D809180008F7760
:1005300007C0809180008F7D03C080918000877FFD
:10054000809380003AC084B58F7702C084B58F7DD8
:1005500084BD33C08091B0008F7703C08091B0001C
:100560008F7D8093B00029C0809190008F7707C065
:10057000809190008F7D03C080919000877F809351
:1005800090001BC08091A0008F7707C08091A000D1
:100590008F7D03C08091A000877F8093A0000DC055
:1005A000809120018F7707C0809120018F7D03C04B
:1005B00080912001877F80932001E92FF0E0EE0FEA
:1005C000FF1FEE5DFE4FA591B4919FB7F8943111D6
:1005D00004C08C912095282302C0EC912E2B2C93E3
:1005E0009FBF0895CF93DF9390E0FC01EE57FE4F3D
:1005F0002491FC01E45CFE4F8491882361F190E03A
:10060000880F991FFC01E85FFE4FC591D491FC0152
:10061000EE5DFE4FA591B491611109C09FB7F894AA
:100620008881209582238883EC912E230BC0623031
:1006300061F49FB7F8948881322F309583238883A3
:10064000EC912E2B2C939FBF06C08FB7F894E881B6
:100650002E2B28838FBFDF91CF9108953FB7F89459
:100660008091DD029091DE02A091DF02B091E00264
:1006700026B5A89B05C02F3F19F00196A11DB11DFD
:100680003FBFBA2FA92F982F8827820F911DA11D38
:10069000B11DBC01CD0142E0660F771F881F991F75
:1006A0004A95D1F708958F929F92AF92BF92CF92C1
:1006B000DF92EF92FF926B017C01D0DF4B015C0176
:1006C000C114D104E104F104E9F0C8DFDC01CB017D
:1006D00088199909AA09BB09883E9340A105B1056B
:1006E00078F321E0C21AD108E108F10888EE880EFB
:1006F00083E0981EA11CB11CC114D104E104F104D3
:1007000021F7DECFFF90EF90DF90CF90BF90AF90BA
:100710009F908F90089597FD07C0833421E0920742
:100720002CF082E491E002C080E090E077FD07C009
:10073000613921E072072CF060E971E002C060E0ED
:1007400070E028E2289FA001299F500D11245093AA
:10075000020340930103269FC001279F900D11249F
:100760009093FC028093FB0208954F925F926F92E8
:100770007F928F929F92AF92BF92CF92DF92EF9231
:10078000FF920F931F93CF93DF9300D000D0CDB78C
:10079000DEB7803A22E9920714F480EA92E98C01EC
:1007A00001368DE6180714F000E61DE620910002E0
:1007B00030910102DB010E94BD0D28EE33E040E0E4
:1007C00050E0E7D74801012E000CAA08BB08609151
:1007D0000503709106036B01072E000CEE08FF085D
:1007E0002901032E000C66087708D501C4018C1975
:1007F0009D09AE09BF09481659066A067B063CF4F6
:10080000260F371F309306032093050315C0C81821
:10081000D908EA08FB084C145D046E047F0444F414
:10082000CB01821B930B909306038093050304C0B6
:1008300010930603009305032091050330910603EE
:100840008091E1022115310529F48823D9F0109215
:10085000E10218C01216130654F4813099F08F9AF1
:1008600080910B01826080930B0181E009C08F3F72
:1008700049F08F9880910B018D7F80930B018FEF52
:100880008093E10220910503309106032115310583
:1008900099F01CF4319521953109032E000C440B7D
:1008A000550B60E874E88EE190E073D721153105AF
:1008B00091E04907510524F02FEF3FEF40E050E071
:1008C00030939900209398002091940030919500E6
:1008D00080919800909199008217930720F41092CC
:1008E00095001092940026960FB6F894DEBF0FBEC6
:1008F000CDBFDF91CF911F910F91FF90EF90DF90CF
:10090000CF90BF90AF909F908F907F906F905F90AF
:100910004F9008954F925F926F927F928F929F9225
:10092000AF92BF92CF92DF92EF92FF920F931F93FD
:10093000CF93DF9300D000D0CDB7DEB7811523E889
:10094000920714F480E093E88C0101308DE71807DA
:1009500014F000E01DE72091020230910302DB0158
:100960000E94BD0D28EE33E040E050E012D7480170
:10097000012E000CAA08BB086091070370910803C0
:100980006B01072E000CEE08FF082901032E000C56
:1009900066087708D501C4018C199D09AE09BF0905
:1009A000481659066A067B063CF4260F371F30931B
:1009B00008032093070315C0C818D908EA08FB08E4
:1009C0004C145D046E047F0444F4CB01821B930B32
:1009D000909308038093070304C0109308030093C7
:1009E000070320910703309108038091E20221154B
:1009F000310529F4882389F01092E2020EC0121604
:100A000013062CF4813049F0899881E004C08F3FAF
:100A100021F0899A8FEF8093E202209107033091B1
:100A200008032115310599F01CF431952195310900
:100A3000032E000C440B550B60E874E88EE190E047
:100A4000A8D62115310591E04907510524F02FEF73
:100A50003FEF40E050E030938900209388002091E0
:100A600084003091850080918800909189008217E0
:100A7000930720F4109285001092840026960FB6FA
:100A8000F894DEBF0FBECDBFDF91CF911F910F91C4
:100A9000FF90EF90DF90CF90BF90AF909F908F909E
:100AA0007F906F905F904F900895E82FF0E0EB51AA
:100AB000FD4F808191810895009761F0FC010190C4
:100AC0000020E9F73197AF01481B590BBC0187E2C1
:100AD00093E0CFCB80E090E00895CF93DF93ECDFFD
:100AE000EC0186E192E0E8DF8C0F9D1FDF91CF9152
:100AF00008958F929F92AF92BF92CF92DF92EF9222
:100B0000FF920F931F93CF93DF93CDB7DEB7A197DB
:100B10000FB6F894DEBF0FBECDBF6C01990FEE0883
:100B2000FF08F7FE28C06DE287E293E038DC8C0115
:100B300022273327A9012C193D094E095F0919A263
:100B4000CE0181967C019AE0892E912CA12CB12CAA
:100B5000CA01B901A501940138D6605DF70162931D
:100B60007F01211531054105510591F7CF01A4DF22
:100B7000080F191F1CC0A701960119A28E010F5D55
:100B80001F4F8AE0C82ED12CE12CF12CCA01B901EB
:100B9000A70196011AD6605DF80162938F012115B5
:100BA00031054105510591F7CF0186DF8C0186E1C2
:100BB00092E082DF800F911FA1960FB6F894DEBFFE
:100BC0000FBECDBFDF91CF911F910F91FF90EF909E
:100BD000DF90CF90BF90AF909F908F900895EDD70A
:100BE0001F920F920FB60F9211240BB60F922F93F4
:100BF0003F934F935F936F937F938F939F93AF93A5
:100C0000BF93EF93FF9387E293E0A7DBFF91EF9110
:100C1000BF91AF919F918F917F916F915F914F9114
:100C20003F912F910F900BBE0F900FBE0F901F9012
:100C300018951F920F920FB60F9211240BB60F92B8
:100C40002F938F939F93EF93FF93E0913703F0914E
:100C500038038081E0913D03F0913E0382FD12C094
:100C60009081809140038F5F8F73209141038217A1
:100C700051F0E0914003F0E0E95DFC4F958F8093E7
:100C8000400301C08081FF91EF919F918F912F913F
:100C90000F900BBE0F900FBE0F901F9018951F92D4
:100CA0000F920FB60F9211242F933F938F939F9320
:100CB000AF93BF938091D9029091DA02A091DB02A9
:100CC000B091DC023091D80223E0230F2D3720F4BD
:100CD0000196A11DB11D05C026E8230F0296A11D96
:100CE000B11D2093D8028093D9029093DA02A09389
:100CF000DB02B093DC028091DD029091DE02A091D4
:100D0000DF02B091E0020196A11DB11D8093DD02CA
:100D10009093DE02A093DF02B093E002BF91AF9107
:100D20009F918F913F912F910F900FBE0F901F9029
:100D300018951F920F920FB60F9211242F938F9335
:100D40009F938091E102882321F18E9A80910B017B
:100D5000886080930B018091FD029091FE022091AA
:100D6000E102820F911D27FD9A959093FE028093D8
:100D7000FD02000000000000000000000000000074
:100D80000000000000008E9880910B01877F809307
:100D90000B019F918F912F910F900FBE0F901F907D
:100DA00018951F920F920FB60F9211242F938F93C5
:100DB0009F938091E2028823F1F0889A8091030347
:100DC000909104032091E202820F911D27FD9A95D4
:100DD00090930403809303030000000000000000D0
:100DE0000000000000000000000000000000000003
:100DF0000000000088989F918F912F910F900FBE57
:100E00000F901F901895789484B5826084BD84B546
:100E1000816084BD85B5826085BD85B5816085BDF5
:100E200080916E00816080936E00109281008091AD
:100E30008100826080938100809181008160809335
:100E40008100809180008160809380008091B1005A
:100E500084608093B1008091B00081608093B00085
:100E600080919100826080939100809191008160D7
:100E70008093910080919000816080939000809198
:100E8000A10082608093A1008091A1008160809385
:100E9000A1008091A00081608093A0008091210139
:100EA00082608093210180912101816080932101E2
:100EB0008091200181608093200180917A0084607C
:100EC00080937A0080917A00826080937A0080918A
:100ED0007A00816080937A0080917A0080688093A4
:100EE0007A001092C10061E086E27CDB61E086E37B
:100EF00079DB61E087E376DB61E088E373DB61E067
:100F00008CE370DB61E08DE36DDB61E08EE36ADB37
:100F100061E08EE267DB61E080E364DB61E089E34E
:100F200061DB60E083E15EDB61E082E15BDB61E08D
:100F300088E058DB61E089E055DB61E08AE052DB64
:100F400061E08DE04FDB61E086E2CEDA61E088E3CC
:100F5000CBDA61E08EE3C8DAE0913703F091380331
:100F600082E08083E0913303F09134031082E091BA
:100F70003503F091360380E1808310923F03E091C6
:100F80003B03F0913C0386E08083E0913903F091CC
:100F90003A03808180618083E0913903F0913A03C4
:100FA000808188608083E0913903F0913A038081E9
:100FB00080688083E0913903F0913A0380818F7DCE
:100FC000808389E192E089DD64E670E080E090E072
:100FD0006ADB80E392E081DD64E670E080E090E02F
:100FE00062DBC4E061E08DE07FDA6CE271E080E01A
:100FF00090E059DB60E08DE077DA6CE271E080E050
:1010000090E051DBC15071F7809181008F7E809319
:1010100081008091810088608093810080918000B0
:101020008D7F80938000809180008E7F80938000F0
:10103000809180008F7380938000809180008F7CEE
:101040008093800080918100887F826080938100FE
:101050002FEF3FEF30938900209388001092E20237
:101060001092850010928400809191008F7E809371
:101070009100809191008860809391008091900010
:101080008D7F80939000809190008E7F8093900060
:10109000809190008F7380939000809190008F7C5E
:1010A0008093900080919100887F8260809391006E
:1010B00030939900209398001092E10210929500CD
:1010C0001092940064E670E080E090E0ECDA86E450
:1010D00092E003DD64E670E080E090E0E4DA809185
:1010E0006F00826080936F008091710082608093B6
:1010F000710060E086E2F8D960E088E3F5D960E04D
:101100008EE3F2D985E692E0D7DC80E491E0F1DC71
:101110008AE792E0D1DC84EB90E0EBDC8FE892E0B0
:10112000CBDC80E09DE7E5DC8DE992E0C5DC80E684
:101130009DE6DFDC8BEA92E0D0DC89EC92E0CDDC4E
:1011400064E670E080E090E0AEDA61E089E04ADADF
:1011500061E089E0C9D961E08AE044DA61E08AE0CF
:10116000C3D988E299E1909304038093030380E25A
:1011700093E09093FE028093FD0270DA6093210366
:1011800070932203809323039093240360930903B5
:1011900070930A0380930B0390930C03612C4DE72B
:1011A000742E50E6C52E5DE6D52E809125039091D4
:1011B0002603019690932603809325034FDA00912E
:1011C00021031091220320912303309124034B012A
:1011D0005C01801A910AA20AB30A48EE841643E021
:1011E0009406A104B1040CF4A4C26093210370938B
:1011F0002203809323039093240380911D039091F5
:101200001E03A0911F03B09120030196A11DB11DE3
:1012100080931D0390931E03A0931F03B09320039C
:1012200087E293E085D8181619060CF057C0E0EF56
:10123000F2E08291818382E0E53EF807D1F787E210
:1012400093E054D88093E502C091E4028D36D9F43E
:101250008091E6028D36B9F4C11109C088248394C7
:101260008092E4023CE0932E9092E30237C081ED3D
:1012700092E033DCAA24A394A092E4022CE0B22EE4
:10128000B092E3022BC0C13049F58091E302815056
:101290008093E302811122C088E007DC9093180359
:1012A0008093170386E001DC90931403809313036B
:1012B00084E0FBDB90931B0380931A0382E0F5DB51
:1012C00090930E0380930D0380E0EFDB9093100367
:1012D00080930F031092E402C0931C0380911C03BF
:1012E000882309F4D3C010921C0380911A038093C1
:1012F0001903609117037091180363537109072E46
:10130000000C880B990B92D327E330EE43E95FE39F
:10131000F2D259D3709316036093150360911303AF
:10132000709114036D507109072E000C880B990BF6
:101330007DD32BE531EB43E95FE3DDD220E030E004
:1013400040EA51E474D23FD37093120360931103C7
:101350008091070390910803892B09F08BC080913D
:10136000050390910603892B09F084C060910D0359
:1013700070910E0365537109072E000C880B990BB1
:1013800055D329EC35EE4FE85FE3B5D21CD34B01C2
:101390005C01672B09F46EC08091030390910403F4
:1013A00068E270E0CFD3EB018091FD029091FE02E4
:1013B0009B012A5731092F34310508F05BC068E2E0
:1013C00070E0C0D36233710508F054C020910F0360
:1013D000309110030091F7021091F8020F5F1F4F38
:1013E0001093F8020093F7028091F5029091F602B3
:1013F0007C01E80CF91CF092F602E092F502B901CA
:101400006D507109072E000C880B990B0FD32BE53B
:1014100031EB43E95FE36FD220E030E040EA51E492
:1014200006D2D1D22091F3023091F402620F731FE1
:101430007093F4026093F3020A30110539F5C70185
:10144000B80180D37093F6026093F502C61BD70BE8
:10145000D7FF03C0D195C195D1092997BCF028E2E7
:10146000269FC001279F900D112490930403809321
:1014700003030CC01092F8021092F7021092F602C9
:101480001092F5021092F4021092F3028091190367
:10149000823059F028F48823B9F1813031F134C019
:1014A000833091F0843009F12FC080911503909121
:1014B0001603709200036092FF02D092FA02C0926B
:1014C000F90262E870E02CC0609111037091120380
:1014D0008091150390911603709200036092FF02B1
:1014E000D092FA02C092F9021BC08091150390912C
:1014F0001603709200036092FF02D092FA02C0922B
:10150000F90264E170E00CC0709200036092FF0287
:10151000D092FA02C092F90264E170E081EA90E0B0
:10152000FAD88B9A9BD80091090310910A03209155
:101530000B0330910C034B015C01801A910AA20A43
:10154000B30A9501840141ED841647E09406A10495
:10155000B10420F000ED17E020E030E0E8016093F6
:10156000090370930A0380930B0390930C038090FC
:10157000070390900803D40197FE04C0AA27BB2755
:10158000A819B90924E031E0FED224EC39E040E0AA
:1015900050E0FFD0DA01C901CC96A11DB11D8C33FA
:1015A00091055CF07C0181E4E81681E0F80644F0E6
:1015B00090E4E92EFF24F39403C08CE3E82EF12C91
:1015C000F0920302E0920202A0900503B09006039D
:1015D000D501B7FE04C0AA27BB27AA19BB0928E773
:1015E00030E0D1D224EC39E040E050E0D2D0DA0152
:1015F000C901CC96A11DB11D8C3391053CF08C0125
:10160000853B91052CF004EB10E002C00CE310E0E8
:1016100010930102009300029401D401AED21B0189
:101620002C0128E037E0D701AED29B01AC01C2010A
:10163000B101AFD097FC03C0E1E0F0E002C0EFEFF2
:10164000FFEF6091030370910403E29FC001E39FE9
:10165000900DF29F900D1124860F971F209101038A
:101660003091020340910303509104034217530742
:101670004CF4BE01821793074CF48091FF029091C5
:1016800000030FC02817390724F0BE0180E090E066
:1016900008C08091FF0290910003BE019195819551
:1016A000910938D99501D50168D21B012C0128E098
:1016B00037E0D80168D29B01AC01C201B10169D009
:1016C000B7FC03C0E1E0F0E002C0EFEFFFEF609194
:1016D000FD027091FE02E29FC001E39F900DF29F18
:1016E000900D1124860F971F2091FB023091FC0270
:1016F0004091FD025091FE02421753074CF4BE0187
:10170000821793074CF48091F9029091FA020FC06E
:101710002817390724F0BE0180E090E008C08091CE
:10172000F9029091FA02BE019195819591091DD817
:101730008B980E943C0239CDE7E2F3E013821282DB
:1017400088EE93E0A0E0B0E084839583A683B7831E
:1017500088E092E09183808385EC90E09587848790
:1017600084EC90E09787868780EC90E0918B808B6B
:1017700081EC90E0938B828B82EC90E0958B848B54
:1017800086EC90E0978B868B118E128E138E148EC2
:101790000895052E97FB16F400940FD057FD05D041
:1017A00014D007FC02D046F408C0509540953095FF
:1017B00021953F4F4F4F5F4F0895909580957095BD
:1017C00061957F4F8F4F9F4F0895A1E21A2EAA1B5C
:1017D000BB1BFD010DC0AA1FBB1FEE1FFF1FA217E1
:1017E000B307E407F50720F0A21BB30BE40BF50BDE
:1017F000661F771F881F991F1A9469F76095709567
:10180000809590959B01AC01BD01CF010895A29FE9
:10181000B001B39FC001A39F700D811D1124911DC4
:10182000B29F700D811D1124911D08955058BB2742
:10183000AA270ED04DC13ED130F043D120F031F473
:101840009F3F11F41EF433C10EF4E095E7FB29C16C
:10185000E92F4FD180F3BA17620773078407950702
:1018600018F071F49EF567C10EF4E0950B2EBA2FB7
:10187000A02D0B01B90190010C01CA01A001112496
:10188000FF27591B99F0593F50F4503E68F11A1642
:10189000F040A22F232F342F4427585FF3CF4695D3
:1018A00037952795A795F0405395C9F77EF41F16F5
:1018B000BA0B620B730B840BBAF09150A1F0FF0FBF
:1018C000BB1F661F771F881FC2F70EC0BA0F621FAB
:1018D000731F841F48F4879577956795B795F7959B
:1018E0009E3F08F0B3CF9395880F08F09927EE0F2D
:1018F0009795879508950CD0EBC0E3D040F0DAD0EF
:1019000030F021F45F3F19F0CCC0511115C1CFC0A8
:10191000F0D098F39923C9F35523B1F3951B550BD8
:10192000BB27AA2762177307840738F09F5F5F4FB2
:10193000220F331F441FAA1FA9F333D00E2E3AF0F3
:10194000E0E830D091505040E695001CCAF729D00D
:10195000FE2F27D0660F771F881FBB1F261737075C
:101960004807AB07B0E809F0BB0B802DBF01FF278C
:1019700093585F4F2AF09E3F510568F092C0DCC03B
:101980005F3FECF3983EDCF3869577956795B795C6
:10199000F7959F5FC9F7880F911D9695879597F9E1
:1019A0000895E1E0660F771F881FBB1F621773075A
:1019B0008407BA0720F0621B730B840BBA0BEE1F6F
:1019C00088F7E095089504D06894B111B5C00895E2
:1019D00098D088F09F5790F0B92F9927B751A0F071
:1019E000D1F0660F771F881F991F1AF0BA95C9F7B3
:1019F00012C0B13081F09FD0B1E008959CC0672F34
:101A0000782F8827B85F39F0B93FCCF38695779562
:101A10006795B395D9F73EF490958095709561954B
:101A20007F4F8F4F9F4F0895E89409C097FB3EF476
:101A300090958095709561957F4F8F4F9F4F99231B
:101A4000A9F0F92F96E9BB279395F6958795779599
:101A50006795B795F111F8CFFAF4BB0F11F460FF59
:101A60001BC06F5F7F4F8F4F9F4F16C0882311F0B1
:101A700096E911C0772321F09EE8872F762F05C0C5
:101A8000662371F096E8862F70E060E02AF09A9560
:101A9000660F771F881FDAF7880F9695879597F955
:101AA000089597F99F6780E870E060E008959FEFE0
:101AB00080EC089500240A941616170618060906E5
:101AC000089500240A9412161306140605060895B4
:101AD000092E0394000C11F4882352F0BB0F40F43C
:101AE000BF2B11F460FF04C06F5F7F4F8F4F9F4F7C
:101AF000089557FD9058440F551F59F05F3F71F0FE
:101B00004795880F97FB991F61F09F3F79F0879564
:101B10000895121613061406551FF2CF4695F1DFED
:101B200008C0161617061806991FF1CF869571057D
:101B3000610508940895E894BB2766277727CB01B1
:101B400097F9089597FB072E16F4009406D077FDB9
:101B500008D01FD007FC05D03EF4909581959F4F8B
:101B60000895709561957F4F0895EE0FFF1F881FB0
:101B70008BBF0790F691E02D199449DE332312F4C0
:101B80008A1B9B0B01C043DEB7FF0895821B930B9A
:101B90000895AA1BBB1B51E107C0AA1FBB1FA617B4
:101BA000B70710F0A61BB70B881F991F5A95A9F706
:101BB00080959095BC01CD01089581E090E0F89466
:061BC00000C0F894FFCF05
:101BC600B400400100000000CF01390167011B028B
:101BD600980176018A010D0A0041485220526F622F
:101BE6006F742076657273696F6E20312E30350002
:101BF600496E697469616C697A696E6720726F6291
:101C06006F742E2E2E00496E697469616C697A694B
:101C16006E672053746570706572206D6F746F7295
:101C2600732E2E2E004D61785F616363656C65725D
:101C36006174696F6E5F783A20004D61785F616309
:101C460063656C65726174696F6E5F793A20004DE9
:101C5600617820737065656420583A20004D61787C
:101C660020737065656420593A20004D6F76696E61
:101C76006720746F20696E697469616C20706F7378
:101C86006974696F6E2E2E2E00526561647921216A
:081C96000053204552520000EA
:020000023000CC
:10E000000D9489F10D94B2F10D94B2F10D94B2F129
:10E010000D94B2F10D94B2F10D94B2F10D94B2F1F0
:10E020000D94B2F10D94B2F10D94B2F10D94B2F1E0
:10E030000D94B2F10D94B2F10D94B2F10D94B2F1D0
:10E040000D94B2F10D94B2F10D94B2F10D94B2F1C0
:10E050000D94B2F10D94B2F10D94B2F10D94B2F1B0
:10E060000D94B2F10D94B2F10D94B2F10D94B2F1A0
:10E070000D94B2F10D94B2F10D94B2F10D94B2F190
:10E080000D94B2F10D94B2F10D94B2F10D94B2F180
:10E090000D94B2F10D94B2F10D94B2F10D94B2F170
:10E0A0000D94B2F10D94B2F10D94B2F10D94B2F160
:10E0B0000D94B2F10D94B2F10D94B2F10D94B2F150
:10E0C0000D94B2F10D94B2F10D94B2F10D94B2F140
:10E0D0000D94B2F10D94B2F10D94B2F10D94B2F130
:10E0E0000D94B2F141546D656761323536300041AF
:10E0F000726475696E6F206578706C6F72657220DE
:10E1000073746B3530305632206279204D4C530099
:10E11000426F6F746C6F616465723E004875683F52
:10E1200000436F6D70696C6564206F6E203D200048
:10E130004350552054797065202020203D20005FF9
:10E140005F4156525F415243485F5F3D2000415658
:10E1500052204C696243205665723D20004743437C
:10E160002056657273696F6E203D20004350552024
:10E1700049442020202020203D20004C6F7720663D
:10E18000757365202020203D20004869676820665F
:10E190007573652020203D200045787420667573D6
:10E1A00065202020203D20004C6F636B2066757336
:10E1B000652020203D20004D617220203720323024
:10E1C000313300312E362E3800342E332E350056A2
:10E1D00023202020414444522020206F7020636F70
:10E1E00064652020202020696E73747275637469E1
:10E1F0006F6E2061646472202020496E74657272B3
:10E20000757074006E6F20766563746F7200726A49
:10E210006D702020006A6D70200057686174207056
:10E220006F72743A00506F7274206E6F7420737541
:10E2300070706F72746564004D7573742062652030
:10E2400061206C6574746572002000577269747483
:10E25000696E672045450052656164696E672045B7
:10E26000450045452065727220636E743D00504F35
:10E27000525400303D5A65726F2061646472003FF1
:10E280003D43505520737461747300403D454550C3
:10E29000524F4D207465737400423D426C696E6B41
:10E2A000204C454400453D44756D70204545505215
:10E2B0004F4D00463D44756D7020464C415348001B
:10E2C000483D48656C70004C3D4C69737420492F83
:10E2D0004F20506F72747300513D51756974005234
:10E2E0003D44756D702052414D00563D73686F7707
:10E2F00020696E7465727275707420566563746FF0
:10E30000727300593D506F727420626C696E6B00BD
:10E310002A0011241FBECFEFD1E2DEBFCDBF01E046
:10E320000CBF12E0A0E0B2E0EEE1FDEF03E00BBFB6
:10E3300002C007900D92A030B107D9F712E0A0E01B
:10E34000B2E001C01D92AE30B107E1F70F9460F367
:10E350000D948DFE01E20EBF0FEF0DBF11241FBE05
:10E360000D9460F30D9400F020E030E040ED57E0B4
:10E3700005C0FA013197F1F72F5F3F4F2817390792
:10E38000C0F308959C01260F311DC901A0E0B0E043
:10E390002F5F3F4FABBFFC018791882361F08093D3
:10E3A000C6008091C00086FFFCCF8091C0008064D1
:10E3B0008093C000EACF08958DE08093C6008091DD
:10E3C000C00086FFFCCF8091C00080648093C000B5
:10E3D0008AE08093C6008091C00086FFFCCF8091C8
:10E3E000C00080648093C00008950F94C2F10F9420
:10E3F000DCF10895FC019081992359F09093C600B7
:10E400008091C00086FFFCCF8091C0008064809323
:10E41000C0003196992379F70895282F982F929567
:10E420009F70892F805D8A3308F0895F8093C600D2
:10E430008091C00086FFFCCF8091C00080648093F3
:10E44000C000822F8F70982F905D9A3308F0995FEB
:10E450009093C6008091C00086FFFCCF8091C000E1
:10E4600080648093C00008959C01FB01853691056E
:10E470001CF46330710594F0C90164E670E00F94F8
:10E480002EFE605D7F4F6093C6008091C00086FFC6
:10E49000FCCF8091C00080648093C0002B30310598
:10E4A00014F43297B4F0C90164E670E00F942EFEC4
:10E4B0006AE070E00F942EFE605D7F4F6093C600AF
:10E4C0008091C00086FFFCCF8091C0008064809363
:10E4D000C000C9016AE070E00F942EFEC0968093E0
:10E4E000C6008091C00086FFFCCF8091C000806490
:10E4F0008093C00008951F93182F8EE692EE60E07F
:10E500000F94C2F11093C6008091C00086FFFCCF2B
:10E510008091C00080648093C0000F94DCF11F9153
:10E5200008952F923F924F925F926F927F928F92B7
:10E530009F92AF92BF92CF92DF92EF92FF920F9392
:10E540001F93DF93CF93CDB7DEB762970FB6F894E2
:10E55000DEBF0FBECDBF382E622ECA01DB015C01CB
:10E560006D01772420E2222E2E010894411C511CBB
:10E570008BC081E0A81680E0B80681E0C80680E084
:10E58000D80628F0C601AA27BB270F940DF2BB2797
:10E59000AD2D9C2D8B2D0F940DF28A2D0F940DF225
:10E5A0002092C6008091C00086FFFCCF8091C00001
:10E5B00080648093C0009DE29093C6008091C0006B
:10E5C00086FFFCCF8091C00080648093C0002092C1
:10E5D000C6008091C00086FFFCCF8091C00080649F
:10E5E0008093C00019828601750188249924A1E0D6
:10E5F0003A1651F03A1620F0B2E03B1661F409C029
:10E600000BBFF701779007C0C7010F9477FE782EF4
:10E6100002C0F7017080872D0F940DF22092C60082
:10E620008091C00086FFFCCF8091C0008064809301
:10E63000C000872D8052F401EF70F0708F3520F408
:10E64000E40DF51D708204C0E40DF51D8EE280839B
:10E650000894E11CF11C011D111D0894811C911CE2
:10E6600090E18916910409F0C2CF80E190E0A0E02A
:10E67000B0E0A80EB91ECA1EDB1E198AC2010F9493
:10E68000FAF10F94DCF16A94662009F072CF629679
:10E690000FB6F894DEBF0FBECDBFCF91DF911F91B3
:10E6A0000F91FF90EF90DF90CF90BF90AF909F9031
:10E6B0008F907F906F905F904F903F902F90089534
:10E6C0002F923F924F925F926F927F928F929F9282
:10E6D000AF92BF92CF92DF92EF92FF920F931F9370
:10E6E000DF93CF93CDB7DEB7CD53D1400FB6F894BB
:10E6F000DEBF0FBECDBF01E20EBF0FEF0DBF94B75F
:10E70000F894A89514BE80916000886180936000A1
:10E7100010926000789493FF05C0E0910002F091A0
:10E7200001021995279A2F9A8091C00082608093E8
:10E73000C00080E18093C40088E18093C1000000A4
:10E74000EE24FF24870144E0A42EB12CCC24DD2448
:10E7500024C0C5010197F1F70894E11CF11C011DCB
:10E76000111D21E2E2162EE4F20620E0020720E06D
:10E77000120718F031E0C32ED12CC801B70127ECE5
:10E780003BE140E050E00F9441FE611571058105C9
:10E79000910519F485B1805885B98091C00087FD35
:10E7A00003C0C114D104A9F2A6014F5F5F4FC25E3E
:10E7B000DE4F59834883CE51D140C25EDE4F8881FF
:10E7C0009981CE51D140019711F00D9410FEC05D9A
:10E7D000DE4F19821882C053D14060E0C15DDE4F28
:10E7E0001882CF52D14088249924C35DDE4F19820C
:10E7F0001882CD52D140C05EDE4F188219821A8233
:10E800001B82C052D140CE5CDE4F188219821A8220
:10E810001B82C253D140EE24FF2487010BBFF701B6
:10E8200007911691C45CDE4F19830883CC53D14005
:10E830000D940BFEC25EDE4F28813981CE51D1404E
:10E840002130310509F52091C600C25EDE4F1982E4
:10E850001882CE51D14022C02F5F3F4F4F4F5F4FA4
:10E86000213082E138078AE7480780E0580780F0C6
:10E87000C45CDE4FE881F981CC53D140EF5FFF4F9C
:10E8800019F0EE27FF27099420E030E040E050E047
:10E890008091C00087FFE0CF2091C600C35DDE4FAE
:10E8A00048815981CD52D1404F5F5F4FC35DDE4FEC
:10E8B00059834883CD52D140213209F063C64A3092
:10E8C000510508F05FC60894811C911C53E0851621
:10E8D000910409F059C600E010E018C081E280936D
:10E8E000C6008091C00086FFFCCF8091C00080648C
:10E8F0008093C0002F5F3F4F2931310579F70F9486
:10E90000DCF10F5F1F4F0530110519F020E030E0FA
:10E91000E5CF10920A0210920B0210920C02109294
:10E920000D02109206021092070210920802109235
:10E930000902109202021092030210920402109235
:10E9400005028FEE90EE60E00F94F5F180E191EE1C
:10E9500060E00F94C2F18091C00087FFFCCF9091DE
:10E96000C600903608F09F759032B8F09093C600BC
:10E970008091C00086FFFCCF8091C00080648093AE
:10E98000C000A0E2A093C6008091C00086FFFCCF2B
:10E990008091C00080648093C000983409F4D7C18E
:10E9A0009934B8F4923409F459C1933458F490333B
:10E9B00019F1903308F4E3C59F33A1F1903409F0C5
:10E9C000DEC5BDC0953409F470C1963409F0D7C5D1
:10E9D00098C1923509F42BC2933538F49C3409F46C
:10E9E000F5C1913509F0CBC518C2963509F445C279
:10E9F000993509F0C4C567C483E792EE62E00F94CD
:10EA0000F5F110920602109207021092080210927D
:10EA1000090210920A0210920B0210920C0210923C
:10EA20000D0213C18FE792EE62E00F94F5F18FEEC5
:10EA300090EE60E00F94F5F181E291EE60E00F94CA
:10EA4000C2F187EB91EE60E00F94F5F180E391EE77
:10EA500060E00F94C2F184EE90EE60E00F94F5F167
:10EA60008FE391EE60E00F94C2F186E090E061E008
:10EA700070E00F9434F20F94DCF18DE591EE60E0DC
:10EA80000F94C2F189EC91EE60E00F94F5F18EE401
:10EA900091EE60E00F94C2F183EC91EE60E00F9490
:10EAA000F5F18CE691EE60E00F94C2F18EE10F94E7
:10EAB0000DF288E90F940DF281E00F940DF20F949E
:10EAC000DCF18BE791EE60E00F94C2F119E0E0E039
:10EAD000F0E010935700E4918E2F0F940DF20F94F5
:10EAE000DCF18AE891EE60E00F94C2F1E3E0F0E03F
:10EAF00010935700E4918E2F0F940DF20F94DCF1D8
:10EB000089E991EE60E00F94C2F1E2E0F0E0109349
:10EB10005700E4918E2F0F940DF20F94DCF188EAE8
:10EB200091EE60E00F94C2F1E1E0F0E01093570045
:10EB30001491812F0F940DF20F94DCF107CF8BE825
:10EB400092EE62E00F94F5F18BE492EE60E00F94A8
:10EB5000F5F10F94DCF100E010E019C0C8016F2D51
:10EB60000F947FFEFF2031F489E492EE60E00F9471
:10EB7000C2F10BC0F092C6008091C00086FFFCCFAE
:10EB80008091C00080648093C0000F5F1F4FC80158
:10EB900081519F41A0E0B0E0ABBFFC01F790BAE229
:10EBA000FB1621F0E2E000301E07C1F60F94DCF105
:10EBB0000F94DCF187E592EE60E00F94F5F10F948D
:10EBC000DCF1CC24DD2400E010E01EC0C8010F946D
:10EBD00077FEF82E882331F489E492EE60E00F94FA
:10EBE000C2F10BC08093C6008091C00086FFFCCFAD
:10EBF0008091C00080648093C000FE1419F00894D6
:10EC0000C11CD11C0F5F1F4FC80181519F41A0E063
:10EC1000B0E0ABBFFC01E790FAE2EF1621F022E092
:10EC20000030120799F60F94DCF10F94DCF182E6C4
:10EC300092EE60E00F94C2F1C60161E070E00F94C3
:10EC400034F20F94DCF10F94DCF110920202109276
:10EC50000302109204021092050278CE89E992EE26
:10EC600062E00F94F5F1279A2F9A16C02F9880E052
:10EC700090E0E0EDF7E03197F1F7019684369105E9
:10EC8000C1F72F9A80E090E0E0EDF7E03197F1F7DF
:10EC9000019684369105C1F78091C00087FFE6CFC9
:10ECA0008091C00087FFFCCF64C485EA92EE62E0E9
:10ECB0000F94F5F140910202509103026091040219
:10ECC0007091050281E020E10F9491F2809102029F
:10ECD00090910302A0910402B091050280509F4FD1
:10ECE000AF4FBF4F8093020290930302A0930402A0
:10ECF000B093050280509041A040B04008F426CE69
:10ED0000A4CF83EB92EE62E00F94F5F140910602FE
:10ED100050910702609108027091090280E020E1A1
:10ED20000F9491F28091060290910702A09108023F
:10ED3000B091090280509F4FAF4FBF4F80930602A2
:10ED400090930702A0930802B0930902FFCD80ECD4
:10ED500092EE62E00F94F5F183E792EE60E00F949B
:10ED6000F5F18FE792EE60E00F94F5F18BE892EE0B
:10ED700060E00F94F5F189E992EE60E00F94F5F10F
:10ED800085EA92EE60E00F94F5F183EB92EE60E09D
:10ED90000F94F5F180EC92EE60E00F94F5F187ECC2
:10EDA00092EE60E00F94F5F188ED92EE60E00F9442
:10EDB000F5F18FED92EE60E00F94F5F18AEE92EEB0
:10EDC00060E00F94F5F183E093EEBDCD87EC92EE19
:10EDD00062E00F94F5F181E40F947BF282E40F94EA
:10EDE0007BF283E40F947BF284E40F947BF285E45E
:10EDF0000F947BF286E40F947BF287E40F947BF20E
:10EE000088E40F947BF28AE40F947BF28BE40F94F6
:10EE10007BF28CE40F947BF299CD88ED92EE62E068
:10EE20000F94F5F1772473948824992409C48FED05
:10EE300092EE62E00F94F5F140910A0250910B02BC
:10EE400060910C0270910D0282E020E10F9491F22A
:10EE500080910A0290910B02A0910C02B0910D02D8
:10EE600080509F4FAF4FBF4F80930A0290930B0289
:10EE7000A0930C02B0930D0269CD8AEE92EE62E08F
:10EE80000F94F5F184EE90EE60E00F94F5F18FECC5
:10EE900091EE60E00F94F5F1662477244301CC5D98
:10EEA000DE4F19821882C452D140D401C301B695F5
:10EEB000A79597958795CA5DDE4F88839983AA8326
:10EEC000BB83C652D140CC5DDE4FA881B981C4520C
:10EED000D1401196CC5DDE4FB983A883C452D14096
:10EEE000CD0162E070E00F9434F2B0E2B093C6005E
:10EEF0008091C00086FFFCCF8091C0008064809329
:10EF0000C000EDE2E093C6008091C00086FFFCCF18
:10EF10008091C00080648093C000F0E2F093C6004E
:10EF20008091C00086FFFCCF8091C00080648093F8
:10EF3000C000CA5DDE4FE880F9800A811B81C6529D
:10EF4000D140BB27A12F902F8F2D0F940DF2CA5DBA
:10EF5000DE4F8881C652D1400F940DF2B0E2FB2EF5
:10EF6000F092C6008091C00086FFFCCF8091C00067
:10EF700080648093C0000DE30093C6008091C000C0
:10EF800086FFFCCF8091C00080648093C00010E2B7
:10EF90001093C6008091C00086FFFCCF8091C00016
:10EFA00080648093C0008BBEF3012791C65DDE4F65
:10EFB0002883CA52D140A22EBB24CC24DD2408943D
:10EFC000611C711C811C911C8BBEF3018791282E42
:10EFD0003324442455240894611C711C811C911C09
:10EFE0008BBEF3013791C55DDE4F3883CB52D140E4
:10EFF0000894611C711C811C911C8BBEF30147910C
:10F00000C45DDE4F4883CC52D140ADEFEA2EAFEF66
:10F01000FA2EAFEF0A2FAFEF1A2F6E0C7F1C801E57
:10F02000911E142D032DF22CEE24EA0CFB1C0C1D5A
:10F030001D1D0F940DF220E22093C6008091C000A8
:10F0400086FFFCCF8091C00080648093C000C65DC5
:10F05000DE4F8881CA52D1400F940DF230E23093D6
:10F06000C6008091C00086FFFCCF8091C000806404
:10F070008093C000C45DDE4F8881CC52D1400F9494
:10F080000DF240E24093C6008091C00086FFFCCFA5
:10F090008091C00080648093C000C55DDE4F888190
:10F0A000CB52D1400F940DF250E25093C6008091A4
:10F0B000C00086FFFCCF8091C00080648093C000B8
:10F0C0008FEFE8168FEFF80680E0080780E018075A
:10F0D00031F484E092EE60E00F94C2F1DFC0D80119
:10F0E000C7018070907CA070B0708050904CA040A0
:10F0F000B040D1F52FEF3FE340E050E0E222F322B1
:10F1000004231523CA5DDE4FA880B980CA80DB8046
:10F11000C652D140AE0CBF1CC01ED11EAA0CBB1CD7
:10F12000CC1CDD1C8EE092EE60E00F94C2F1BB2798
:10F13000A12F902F8F2D0F940DF28E2D0F940DF285
:10F1400030E23093C6008091C00086FFFCCF8091F2
:10F15000C00080648093C0004EE34093C60080915D
:10F16000C00086FFFCCF87C08EE09EEFA0E0B0E03D
:10F17000E822F9220A231B239CE0E91694E9F90608
:10F1800090E0090790E0190709F088C0C45DDE4FE0
:10F19000A881CC52D140EA2EFF2400E010E0102FCD
:10F1A0000F2DFE2CEE24C55DDE4FB881CB52D14031
:10F1B000EB0EF11C011D111DD601C501817090706F
:10F1C000A070B070DC0199278827E80EF91E0A1F8D
:10F1D0001B1F20EF30E040E050E0A222B322C42207
:10F1E000D52241E1AA0CBB1CCC1CDD1C4A95D1F7F1
:10F1F000EA0CFB1C0C1D1D1D81E090E0A0E0B0E0BE
:10F20000282239224A225B2235E1220C331C441C7D
:10F21000551C3A95D1F7E20CF31C041D151D57013E
:10F220006801AA0CBB1CCC1CDD1C85E192EE60E0E1
:10F230000F94C2F1C801AA27BB270F940DF2BB2778
:10F24000A12F902F8F2D0F940DF28E2D0F940DF274
:10F2500090E29093C6008091C00086FFFCCF809121
:10F26000C00080648093C000AEE3A093C60080918C
:10F27000C00086FFFCCF8091C00080648093C000F6
:10F28000C601AA27BB270F940DF2BB27AD2D9C2DDD
:10F290008B2D0F940DF28A2D0F940DF20F94DCF14B
:10F2A000CC5DDE4FE881F981C452D140F99709F471
:10F2B0004DCBF4E0EF2EF12C012D112D6E0C7F1CA7
:10F2C000801E911EF2CD83E093EE62E00F94F5F183
:10F2D0008AE192EE60E00F94C2F18091C00087FF56
:10F2E000FCCF1091C6001F751093C6008091C0001E
:10F2F00086FFFCCF8091C00080648093C0000F9493
:10F30000DCF1812F81548A3108F036C1163409F4BA
:10F3100095C0173490F4133409F44EC0143430F40B
:10F320001134F1F0123409F01DC130C0143409F465
:10F3300059C0153409F016C16BC01A3409F4C4C0A1
:10F340001B3438F4173409F48FC0183409F00AC19B
:10F35000A1C01B3409F4D2C01C3409F003C1E8C0B9
:10F360008FEF81B90DC082B1809582B980E090E0C5
:10F37000E0EDF7E03197F1F70196883C9105C1F790
:10F380008091C00087FFEFCF12B8EFC08FEF84B934
:10F390000DC085B1809585B980E090E0E0EDF7E0A3
:10F3A0003197F1F70196883C9105C1F78091C00033
:10F3B00087FFEFCF15B8D9C08FEF87B90DC088B1DF
:10F3C000809588B980E090E0E0EDF7E03197F1F7C3
:10F3D0000196883C9105C1F78091C00087FFEFCF6F
:10F3E00018B8C3C08FEF8AB90DC08BB180958BB9A7
:10F3F00080E090E0E0EDF7E03197F1F70196883C8E
:10F400009105C1F78091C00087FFEFCF1BB8ADC059
:10F410008FEF8DB90DC08EB180958EB980E090E0F0
:10F42000E0EDF7E03197F1F70196883C9105C1F7DF
:10F430008091C00087FFEFCF1EB897C08FEF80BBD1
:10F440000DC081B3809581BB80E090E0E0EDF7E0F6
:10F450003197F1F70196883C9105C1F78091C00082
:10F4600087FFEFCF11BA81C08FEF83BB0DC084B38C
:10F47000809584BB80E090E0E0EDF7E03197F1F714
:10F480000196883C9105C1F78091C00087FFEFCFBE
:10F4900014BA6BC08FEF809301010FC080910201FD
:10F4A00080958093020180E090E0E0EDF7E03197F5
:10F4B000F1F70196883C9105C1F78091C00087FF64
:10F4C000EDCF1092020151C08FEF809304010FC065
:10F4D0008091050180958093050180E090E0E0ED4A
:10F4E000F7E03197F1F70196883C9105C1F78091DB
:10F4F000C00087FFEDCF1092050137C08FEF8093DA
:10F5000007010FC08091080180958093080180E079
:10F5100090E0E0EDF7E03197F1F70196883C910536
:10F52000C1F78091C00087FFEDCF109208011DC088
:10F530008FEF80930A010FC080910B01809580931B
:10F540000B0180E090E0E0EDF7E03197F1F70196F4
:10F55000883C9105C1F78091C00087FFEDCF1092E4
:10F560000B0103C085E292EEEEC98091C00087FFD7
:10F57000FCCF8091C600EAC988E392EEE4C98CE131
:10F5800091EEE1C988249924933011F1943028F444
:10F59000913089F09230B8F408C0953061F195301F
:10F5A000F0F0963009F048C043C02B3109F042C951
:10F5B00091E06BE13FC96227C15DDE4F2883CF52E6
:10F5C000D14092E037C9B22FA0E0622793E032C960
:10F5D000822F90E0A82BB92B622794E02BC92E3004
:10F5E00009F039C3622795E0C05DDE4F19821882A9
:10F5F000C053D1401FC9E1E0F0E0EC0FFD1FC05D3A
:10F60000DE4F08811981C053D140E00FF11F2083E4
:10F610000F5F1F4FC05DDE4F19830883C053D14079
:10F6200062270A171B0709F005C9D80196E002C92D
:10F63000261709F010C303C0973009F0FBC87724E0
:10F640009981933109F412C19431C8F4963009F4C8
:10F65000D8C0973050F4923009F406C1933009F4C1
:10F660006DC0913009F059C253C0913109F477C08F
:10F67000923108F0BBC0903109F04FC2F5C098310B
:10F6800009F487C0993150F4953109F4EFC09531F0
:10F6900008F4C6C1963109F040C2C2C19A3109F4DA
:10F6A0006CC09A3108F491C09B3109F45BC09D3164
:10F6B00009F033C29D81903359F48F81882311F46E
:10F6C0009EE11CC0813011F091E018C098E916C08D
:10F6D000892F807591F0903539F4E0E0F0E089E011
:10F6E0008093570094910AC0983539F4E3E0F0E034
:10F6F00089E080935700949101C090E01A821B82A8
:10F700008D818C831D829E831F8227E030E009C299
:10F710001A8288E08B8381E48C8386E58D8382E581
:10F720008E8389E48F8383E5888780E589878FE5E9
:10F730008A8782E38B872BE030E0F3C18A818139AD
:10F7400041F0823941F0803911F48FE005C080E04A
:10F7500003C082E001C08AE01A828B8344C0772410
:10F76000739482C08D81882311F48EE12CC0813086
:10F7700011F081E028C088E926C01A82E1E0F0E0BB
:10F7800089E08093570084918B831C8224E030E0D1
:10F79000C8C18B81803589F48C81883039F4E2E0EE
:10F7A000F0E089E08093570084910DC0E0E0F0E044
:10F7B00089E080935700849106C0E3E0F0E089E09F
:10F7C0008093570084911A82DFCF8D81836C99E0FA
:10F7D000E1E0F0E0082E90935700E89507B600FCB2
:10F7E000FDCF1A821B8223E030E09BC180EC8A832C
:10F7F000CE5CDE4F188219821A821B82C253D1401E
:10F800008EC18A8190E0A0E0B0E0582F44273327D2
:10F8100022278B8190E0A0E0B0E0DC0199278827C7
:10F82000282B392B4A2B5B2B8D8190E0A0E0B0E098
:10F83000282B392B4A2B5B2B8C8190E0A0E0B0E089
:10F84000BA2FA92F982F8827282B392B4A2B5B2BCF
:10F85000220F331F441F551FC05EDE4F288339839C
:10F860004A835B83C052D1401A8259C13A81C95C34
:10F87000DE4F3883C753D140CA5CDE4F1882C6536F
:10F88000D1408B81C82EDD24CA5CDE4F488159816E
:10F89000C653D140C42AD52A933109F082C0CE5C28
:10F8A000DE4F88819981AA81BB81C253D1408050AB
:10F8B000904CA340B04030F583E0CE5CDE4FE88052
:10F8C000F9800A811B81C253D140F70100935B008C
:10F8D00080935700E89507B600FCFDCFCE5CDE4F65
:10F8E000088119812A813B81C253D14000501F4FAA
:10F8F0002F4F3F4FCE5CDE4F088319832A833B8313
:10F90000C253D140C05EDE4F488159816A817B81FC
:10F91000C052D140DE011B9631E08C9111962C91A2
:10F9200011971296C75CDE4F2883C953D140C85C3B
:10F93000DE4F1882C853D14090E0C85CDE4FE881AA
:10F94000F981C853D1408E2B9F2B0C01FA01609393
:10F950005B0030935700E89511244E5F5F4F6F4F67
:10F960007F4F0EEFE02E0FEFF02ECE0CDF1CC114F8
:10F97000D10499F685E0C05EDE4F088119812A81A5
:10F980003B81C052D140F80120935B008093570027
:10F99000E89507B600FCFDCF81E180935700E8951C
:10F9A00035C0C05EDE4F88819981AA81BB81C0527B
:10F9B000D140B695A795979587957C018601ABE0D8
:10F9C000AA2EB12CAC0EBD1E0BC0D5016D915D01F0
:10F9D000C7010F947FFE0894E11CF11C01501040F8
:10F9E0000115110591F7A60160E070E0440F551F65
:10F9F000661F771FC05EDE4FE880F9800A811B8199
:10FA0000C052D1404E0D5F1D601F711F1A82C05E33
:10FA1000DE4F488359836A837B83C052D1407FC0C5
:10FA2000FA80C55CDE4FF882CB53D140C65CDE4F16
:10FA30001882CA53D1408B81C82EDD24C65CDE4FAC
:10FA400008811981CA53D140C02AD12A1A828981DA
:10FA5000BE016D5F7F4F843121F59601C05EDE4FA0
:10FA6000E880F9800A811B81C052D1400BBFF701A9
:10FA700087919691DB018C9311969C936E5F7F4FDB
:10FA8000D801C7010296A11DB11DC05EDE4F88835B
:10FA90009983AA83BB83C052D14022503040F1F6F3
:10FAA00036C0C05EDE4F288139814A815B81C052F9
:10FAB000D1400894C108D108760100E010E0089414
:10FAC000C11CD11C0894E11CF11C011D111DE20E8A
:10FAD000F31E041F151F21BDBB27A52F942F832FB5
:10FAE00082BD2F5F3F4F4F4F5F4FF89A80B5DB01CC
:10FAF0008D93BD012E153F054007510761F7C05E8C
:10FB0000DE4F288339834A835B83C052D1409601FC
:10FB10002D5F3F4FFB01108204C080EC8A8322E0FE
:10FB200030E08BE18093C6008091C00086FFFCCF5F
:10FB30008091C00080648093C000C15DDE4FF88179
:10FB4000CF52D140F093C6008091C00086FFFCCF19
:10FB50008091C00080648093C000432F3093C60022
:10FB60008091C00086FFFCCF8091C00080648093AC
:10FB7000C000922F2093C6008091C00086FFFCCF6A
:10FB80008091C00080648093C0008EE08093C600A6
:10FB90008091C00086FFFCCF8091C000806480937C
:10FBA000C00065E1C15DDE4FE880CF52D1406E25D7
:10FBB00069276427FE01319610C090819093C6009A
:10FBC0008091C00086FFFCCF31968091C000806498
:10FBD0008093C0006927215030402115310569F715
:10FBE0006093C6008091C00086FFFCCF8091C0006A
:10FBF00080648093C00085B1805885B9772081F4F6
:10FC0000C15DDE4F0881CF52D1400F5FC15DDE4F35
:10FC10000883CF52D14090E0A0E0B0E00D941AF4F8
:10FC200027982F9880E090E020ED37E0F901319798
:10FC3000F1F7019684369105C9F700008091C00064
:10FC40008D7F8093C00081E180935700E895EE2777
:10FC5000FF270994FFCF90E00D941AF497FB092E2B
:10FC600007260AD077FD04D02ED006D000201AF443
:10FC7000709561957F4F0895F6F7909581959F4F08
:10FC80000895A1E21A2EAA1BBB1BFD010DC0AA1FDD
:10FC9000BB1FEE1FFF1FA217B307E407F50720F0F5
:10FCA000A21BB30BE40BF50B661F771F881F991F70
:10FCB0001A9469F760957095809590959B01AC01B9
:10FCC000BD01CF010895AA1BBB1B51E107C0AA1FAC
:10FCD000BB1FA617B70710F0A61BB70B881F991FED
:10FCE0005A95A9F780959095BC01CD010895F99991
:10FCF000FECF92BD81BDF89A992780B50895262F31
:10FD0000F999FECF1FBA92BD81BD20BD0FB6F89400
:0EFD1000FA9AF99A0FBE01960895F894FFCF63
:040000033000E000E9
:00000001FF